:020000040800F2
:1000000080250020A1A40208F9A20208FBA2020890
:10001000FDA20208FFA2020801A3020800000000DE
:1000200000000000000000000000000003A3020820
:1000300005A302080000000007A3020809A30208A4
:10004000D5A40208D9A40208DDA40208E1A402088C
:10005000E5A40208E9A40208EDA40208F1A402083C
:10006000F5A40208F9A40208FDA402081FA30208CF
:1000700001A5020805A5020809A502080DA50208A8
:1000800011A5020815A5020819A502081DA5020858
:1000900029A3020821A5020825A5020829A502080E
:1000A0002DA5020831A5020835A5020839A50208C8
:1000B0003DA5020841A5020845A5020849A5020878
:1000C0004DA5020851A5020855A5020859A5020828
:1000D0005DA5020861A5020865A5020833A3020810
:1000E00069A502086DA5020871A5020800000000BC
:1000F0000000000000000000000000000000000000
:10010000000000000000000075A5020879A50208A3
:100110007DA5020881A502083DA3020885A5020865
:1001200089A502088DA5020891A5020895A50208D7
:1001300099A502089DA50208A1A50208A5A5020887
:1001400059A30208A9A50208ADA50208B1A5020895
:100150002DE9FF4F84B00498059910EB810050F809
:10016000040CC0F3C07010F001000699079A11EB5F
:10017000820151F8041CC1F3C07111F001018DF826
:10018000001001240026119903E0002241F82620E6
:10019000761C129A9642F8DB002205E0129DAE42D0
:1001A00001DA41F82630521C059B9A426BDA002393
:1001B000049D55F82270C0B2002806D0FD4367198F
:1001C000A74201D2012400E000243D0C0295BDB2FB
:1001D00001950125129EB61A079FBE4202DB079EBB
:1001E000039600E0039616005FF0000C0BE041F868
:1001F00026E013EB194313EB1A43029F08FB073366
:10020000761C1CF1010C039FBC45C7DA51F826E0AF
:10021000069F57F82C709DF80080B8F1000F06D0AB
:10022000FF43EF19AF4201D2012500E000255FEA4C
:100230001748BFB2DDF8089007FB09F9DDF804A004
:1002400008FB0AFA13EB0E0E9E4501D2012300E0D3
:100250000023DDF804B00BFB07F717EB0E0EBE45CD
:1002600001D25B1CFFE75FEA094717EB0E0EBE45A4
:1002700001D25B1CFFE75FEA0A4717EB0E0EBE4593
:10028000B5D25B1CB3E79DF80020C0B2904212D0FB
:100290000123002601E00023761C129886420ADA28
:1002A00051F82600C04313EB000E41F826E09E45AE
:1002B000F1D20123F0E708B0BDE8F08F2DE9F84F47
:1002C00083468A460024002590461BEB8A0050F89E
:1002D000040C002823D50126002704E00026F6B2EE
:1002E00018F120087F1C57452FDA5BF827007FEABA
:1002F000000919EB060642469046300022F096FBB4
:10030000424622F0A1FB02000B002000290022F04F
:100310003BFC04000D004E45E0D20126DFE700273C
:1003200011E0424616005BF8270022F07FFB320006
:1003300022F08AFB22002B0022F0E6FC04000D00D4
:1003400018F120087F1C5745EBDB20002900BDE891
:10035000F48F80B500F007F8012801DB012000E0F0
:100360000020C0B202BD30B410EB820353F8043C4D
:1003700013F0004411EB820353F8043C13F00045E2
:1003800095EA040F08D0002C04D05FF0FF3318006A
:1003900030BC70470123FAE7002300E00123002B63
:1003A000F5D1012AF3DB521E50F8224051F82250B9
:1003B000AC42F4D0A542F1D35FF0FF33EFE780B554
:1003C000FFF7D1FF002801D5012000E00020C0B2D6
:1003D00002BD2DE9F041002801D5454200E00500AD
:1003E000002901D54E4200E00E002F0CACB25FEAAE
:1003F000164CB5B205FB07FE0CFB04F8654300265E
:1004000015EB0844AC4200D20126250014EB0E4443
:10041000AC4200D2761C5FEA1E4515EB18450CFB7A
:1004200007557519002815D0002913D0012801DBC4
:10043000012000E00020012901DB012100E0002172
:10044000C0B2C9B2884205D0ED43E443641C002C1D
:1004500000D16D1C15601C60BDE8F08100B583B053
:1004600001AB00AAFFF7B5FF0098012806DA009853
:10047000002806D10198B0F1004F02D37FF0004070
:100480000FE0009810F1010F07DB009810F1010F49
:1004900006D10198B0F1004F02D25FF0004000E0B9
:1004A00001980EBD30B4436880688B62C862D2E99F
:1004B0001A45C1E90045D2E92845C1E902450220B3
:1004C00081F83000D2E93045C1E9044530BC7047BD
:1004D0002DE9F84F8CB08B46DDF864A0DAF82810CF
:1004E0000291DAF82C1003914168029BCB1A8168C3
:1004F000039C091B4468029DAC4200D2491E44681B
:10050000029480680390CAF820300298CAF8280044
:10051000CAF824100398CAF82C00189C2698D0E931
:100520000067C4E904671B98D0E90067C4E906675F
:100530001C98D0E90067C4E908672098007884F81F
:100540006002100022F068FAC4E90A011A9DD5E998
:100550000423D4E90A0122F04BFCC4E90C01D5E9DB
:100560000623D4E90C0122F043FCC4E90E01D5E9CD
:100570000823D4E90E0122F03BFCC4E9100194F8F1
:10058000600222F053FAD4E9102322F031FCC4E9CE
:1005900012011D98007884F86102179822F03CFA45
:1005A000C4E91401D5E90A23D4E9140122F020FC9E
:1005B000C4E91601D4E916230020DFF80C1822F054
:1005C000A3FBC4E91801D4E91823D4E9180122F0E7
:1005D0000FFC02000B000020DFF8F01722F0D4FA25
:1005E0000022DFF8EC3722F0E5FCC4E91A01D4E977
:1005F0001A23D4E91A0122F0FBFB02000B00DFF8FA
:10060000D407DFF8D41722F0BFFA0022DFF8CC3786
:1006100022F07AFB06000F00300039000022002390
:1006200022F0ECFD0AD297F000473000390022F0AA
:10063000FDFD06000F0097F0004705E0300039008F
:1006400022F0F4FD06000F00DFF89407DFF894179E
:1006500032003B0022F098FA06000F00D4E91A237A
:100660000020DFF8781722F04FFB02000B0030006B
:10067000390022F09FFCC4E91C01D4E91C0122F0DE
:100680004DFE00225FF0804322F0B2FBC4E91E0160
:10069000D4E91E0122F08CFEDFF84427DFF844374E
:1006A00022F0A6FBC4E92001D4E92023D4E92001EB
:1006B00022F09EFB0022DFF8243722F025FBC4E95C
:1006C0002201D5E90C23D4E90C0122F091FBC4E905
:1006D0002401D4E924230020DFF8EC1622F014FBD7
:1006E000C4E92601D4E92623D4E9260122F080FBBF
:1006F00002000B000020DFF8D41622F045FA002299
:10070000DFF8CC3622F056FCC4E92801D4E92823CE
:10071000D4E9280122F06CFBC4E92A01D4E92201C2
:10072000D4E92A2322F030FAC4E92C01D4E92C6759
:10073000300039000022002322F060FD0AD297F039
:1007400000473000390022F071FD06000F0097F0DD
:10075000004705E03000390022F068FD06000F0078
:10076000C4E92E67D4E92001D4E92E2322F00CFA43
:10077000C4E93001D4E928230020DFF8601622F014
:10078000C3FA02000B000020DFF8501622F012FC22
:10079000C4E93201D4E93023D4E9320122F028FB44
:1007A000C4E93401D4E9340122F0B8FD00225FF03D
:1007B000804322F01DFBC4E93601D5E90E23D4E9BC
:1007C000360122F015FBC4E9380194F8610222F0E9
:1007D0002DF9D4E9382322F00BFBC4E93A01D4E91E
:1007E0000823D4E9120122F08FFAD4E93A2322F047
:1007F000CBF9C4E93C01D4E90423D4E9060122F091
:1008000083FAD4E93C2322F0BFF9C4E93E01D4E9DC
:100810003E67D5E91289D5E9100132003B0022F08C
:10082000EDFC02D2C4E940010BE030003900424641
:100830004B4622F0E3FC02D2C4E9408901E0C4E95E
:100840004067D5E91423D4E9400122F0D1FAC4E984
:100850004201DAE90001C4E944012398D0E9002308
:10086000C4E94623D4E94223D4E9460122F0C0FA80
:10087000C4E94801D5E91C23D4E9480122F0B8FABB
:10088000C4E94A01D5E91E23D4E94A0122F0B0FAAD
:10089000C4E94C01D4E94C01D4E9442322F074F9B1
:1008A000C4E94E01D5E92023D4E94E0122F0A0FA93
:1008B000C4E95001D5E92223D4E9500122F098FA85
:1008C000C4E95201D5E92423D4E9480122F090FA81
:1008D000C4E95401D4E95423D4E9520122F014FAB2
:1008E000C4E956012298007884F8620294F8620202
:1008F000002803D09AF93000012807DB94F862023F
:10090000002807D19AF93000012803D1D5E9280140
:10091000CAE90201DAE90201D5E92A2322F04CFDF5
:1009200004D8D5E92A01CAE902010AE0D5E92C0177
:10093000DAE9022322F040FD03D8D5E92C01CAE907
:100940000201DAE90201C4E95801DAE90401C4E963
:100950005A01D4E95667D5E93889D5E9360132001C
:100960003B0022F04BFC02D2C4E95C010BE03000FA
:10097000390042464B4622F041FC02D2C4E95C8970
:1009800001E0C4E95C67D5F8800102900C980390FF
:100990000220019004A80090012303AA012102A8CB
:1009A000FFF7D6FBDDE9040114F51472C2E900017A
:1009B00015F5BC72D2E90001CDE9040114F51472F9
:1009C000D2E90001CDE906010420019008A80090B9
:1009D000022306AA022104A8FFF7BAFB200008A9F7
:1009E000102222F001FD08A82100102222F0FCFCB8
:1009F0000022042108A8FFF761FC02000B00002080
:100A0000DFF8D41B22F0F4F902000B00D4E95C01FA
:100A100022F0BAF8C4E95E01D5E93A23D4E95E01CF
:100A200022F0E6F9C4E96001D5E93C23D4E960018C
:100A300022F0DEF9C4E96201D5E93E23D4E962017E
:100A400022F0D6F9C4E96401D4E96401D4E95A2357
:100A500022F09AF8C4E96601D5E94023D4E9660199
:100A600022F0C6F9C4E96801D4E96867D5E9448988
:100A7000D5E9420132003B0022F0C0FB02D2C4E9BA
:100A80006A010BE03000390042464B4622F0B6FBCB
:100A900002D2C4E96A8901E0C4E96A67D5E946235C
:100AA000D4E96A0122F0A4F9C4E96C012598D0E9DF
:100AB0000023C4E96E23D4E96023D4E96E0122F057
:100AC00097F9C4E970012498D0E90023C4E972239E
:100AD000D4E96023D4E9720122F08AF9C4E97401EF
:100AE000D4E95C67300039000022002322F086FB45
:100AF00005D20020DFF8E41AC4E976010DE03000E9
:100B000039000022002322F057FC04D20020B34910
:100B1000C4E9760101E0C4E97667D5E94823D4E960
:100B20005C0122F065F9C4E97801D5E94A23D4E9EA
:100B3000760122F05DF9C4E97A01D4E95823D4E9B9
:100B4000700122F0E1F8D4E96C2322F0DDF8C4E969
:100B50007C01D4E97823D4E97A0122F0D5F8D4E9EC
:100B60007C2322F0D1F8C4E97E01D5E94C23D4E9F5
:100B7000380122F03DF9C4E98001D5E94E23D4E9DA
:100B80003E0122F035F9C4E98201D4E97E67D5E956
:100B90005289D5E9500132003B0022F02FFB02D2EE
:100BA000C4E984010BE03000390042464B4622F094
:100BB00025FB02D2C4E9848901E0C4E98467D4E951
:100BC0008423D5E9160122F09FF8C4E98601D4E90F
:100BD0008667D5E95689D5E9540132003B0022F0F9
:100BE0000DFB02D2C4E988010BE030003900424617
:100BF0004B4622F003FB02D2C4E9888901E0C4E934
:100C0000886716981E9E1F99C0B2052804D1C1F8A6
:100C100000B0C6F800B00DE0C0B2042806D10868E4
:100C2000C4F85C02D4F85C02306003E0C1F800B0A4
:100C3000C6F800B01D98007884F863022198007807
:100C400084F8640294F8640221F0F0FEC4E98A0199
:100C50003068C4F85802D4F8580221F0DDFEC4E927
:100C60008C01D5E95823D4E98C0122F0C1F8C4E9FC
:100C70008E01D4E98E67D5E95C89D5E95A01320045
:100C80003B0022F0BBFA02D2C4E990010BE0300035
:100C9000390042464B4622F0B1FA02D2C4E99089AB
:100CA00001E0C4E99067D4E98A23D4E9900122F0F5
:100CB0009FF8C4E9920194F8630200280AD0D4E9AD
:100CC00092011B9AC2E90001D5E900011C9AC2E910
:100CD000000109E0D4E992011C9AC2E90001D5E9BA
:100CE00002011B9AC2E90001DAF8200021F09EFE01
:100CF000D5E9182322F07CF8D4E9502322F078F8C3
:100D0000DAE9002322F000F8CAE90001DAF820004D
:100D100021F08CFED5E9262322F06AF8D4E9742369
:100D200022F066F8DAE9022321F0EEFFCAE90201B7
:100D3000DAE90201D5E92A2322F03EFB04D8D5E9FD
:100D40002A01CAE902010AE0D5E92C01DAE9022305
:100D500022F032FB03D8D5E92C01CAE9020194F84C
:100D60006202002801D0012000E000208AF8300053
:100D7000DAF8200021F05AFED5E92E2322F038F8C7
:100D8000D4E9682322F034F8DAE9042321F0BCFF27
:100D9000CAE90401DAE90401D5E9322322F00CFBA7
:100DA00004D8D5E93201CAE904010AE0D5E93401E1
:100DB000DAE9042322F000FB03D8D5E93401CAE9BB
:100DC00004010DB0BDE8F08F00987040A417F64004
:100DD0000088D340DEBE0E9C33321C400000F03F42
:100DE0003D0AD7A3703D054030B4436880688B62EC
:100DF000C862D2E91C45C1E90045D2E92C45C1E9E8
:100E00000245022081F83000D2E93445C1E90445A9
:100E100030BC70472DE9F84F98B08B461600DDF8CE
:100E200090A0DAF828100291DAF82C1003914168AA
:100E3000029A8A1A8168039BC91A4368029CA342DA
:100E400000D2491E4368029380680390CAF82020AC
:100E50000298CAF82800CAF824100398CAF82C008F
:100E6000239C2A98D0E90023C4E90C232898007811
:100E700084F8C20126980068C4F8B801259DD5F809
:100E800080010290D4F8B80103900220019004A8D8
:100E90000090012303AA012102A8FFF759F9DDE917
:100EA000040114F5D472C2E9000115F5B872D2E953
:100EB0000001CDE9040114F5D472D2E90001CDE9B5
:100EC0000A010420019006A8009002230AAA022128
:100ED00004A8FFF73DF9200006A9102222F084FAA9
:100EE00006A82100102222F07FFA10A815F11001A7
:100EF000102222F079FA0CA82900102222F074FAAC
:100F000004220CA906A8FFF724FA002806D014F141
:100F100010000CA9102222F067FA13E0042210A995
:100F200006A8FFF74CFA002806D014F1100010A90B
:100F3000102222F059FA05E014F1100006A910223F
:100F400022F052FA06A814F11001102222F04CFAF5
:100F50000022042106A8FFF7B1F902000B000020CF
:100F6000DFF87C1621F044FF8046894694F8C201E0
:100F700021F05CFD42464B4621F03AFFC4E90E01E8
:100F8000300021F049FDC4E91001D5E90823D4E976
:100F9000100121F02DFFC4E91201D5E90A23D4E99B
:100FA000120121F025FFC4E91401D5E90C23D4E98D
:100FB000140121F01DFFC4E91601D4E91623DFF85E
:100FC0002406DFF8241621F09FFEC4E91801D4E9B5
:100FD0001823D4E9180121F00BFF02000B00DFF801
:100FE0000C06DFF80C1621F0CFFDDFF80826DFF83D
:100FF000083621F0DFFFC4E91A01D4E91A23D4E945
:101000001A0121F0F5FE02000B00DFF8F005DFF811
:10101000F01521F0B9FD0022DFF8E83521F074FE6B
:1010200006000F00300039000022002322F0E6F80D
:101030000AD297F000473000390022F0F7F8060096
:101040000F0097F0004705E03000390022F0EEF87D
:1010500006000F00DFF8B005DFF8B01532003B00E6
:1010600021F092FD06000F00D4E91A230020DFF8DA
:10107000941521F049FE02000B003000390021F0E8
:1010800099FFC4E91C01D4E91C0122F047F90022B0
:101090005FF0804321F0ACFEC4E91E01D5E90E23C8
:1010A000D4E91E0121F0A4FEC4E92001D5E91023F2
:1010B000D4E9200121F09CFEC4E92201D4E90C23EB
:1010C000D4E90E0121F020FED4E9222321F05CFDB9
:1010D000C4E92401D4E92467D5E91489D5E91201CA
:1010E00032003B0022F08AF802D2C4E926010BE06C
:1010F0003000390042464B4622F080F802D2C4E963
:10110000268901E0C4E92667D5E91623D4E926013A
:1011100021F06EFEC4E92801DAE90001C4E92A01E0
:10112000D5E91E23D4E9280121F062FEC4E92C018F
:10113000D5E92023D4E92C0121F05AFEC4E92E017F
:10114000D5E92223D4E92E0121F052FEC4E9300171
:10115000D4E93001D4E92A2321F016FDC4E9320193
:10116000D5E92423D4E9320121F042FEC4E9340157
:10117000D5E92623D4E9340121F03AFEC4E9360149
:10118000D5E92823D4E92C0121F032FEC4E9380145
:10119000D4E93823D4E9360121F0B6FDC4E93A0197
:1011A0002998007884F8C30194F8C301002803D07B
:1011B0009AF93000012807DB94F8C301002807D111
:1011C0009AF93000012803D1D5E92C01CAE90201BE
:1011D000DAE90201D5E92E2322F0EEF804D8D5E9A8
:1011E0002E01CAE902010AE0D5E93001DAE9022359
:1011F00022F0E2F803D8D5E93001CAE90201DAE9C0
:101200000201C4E93C01DAE90401C4E93E01D4E980
:101210003A67D5E93889D5E9360132003B0021F03B
:10122000EDFF02D2C4E940010BE030003900424634
:101230004B4621F0E3FF02D2C4E9408901E0C4E952
:101240004067D5F884010290229803900220019013
:1012500004A80090012303AA012102A8FEF778FF49
:10126000DDE9040114F5D872C2E9000115F5BC727C
:10127000D2E90001CDE90A0114F5D872D2E90001E2
:10128000CDE904010420019014A80090022304AACF
:1012900002210AA8FEF75CFF14F1200014A9102215
:1012A00022F0A2F806A814F12001102222F09CF8E6
:1012B0000022042106A8FFF701F802000B0000201D
:1012C0005FF0695121F094FD02000B00D4E9400168
:1012D00021F05AFCC4E94201D5E93A23D4E942019C
:1012E00021F086FDC4E94401D5E93C23D4E9440159
:1012F00021F07EFDC4E94601D5E93E23D4E946014B
:1013000021F076FDC4E94801D4E94801D4E93E233F
:1013100021F03AFCC4E94A01D5E94023D4E94A0165
:1013200021F066FDC4E94C01D4E94C67D5E9448954
:10133000D5E9420132003B0021F060FF02D2C4E94E
:101340004E010BE03000390042464B4621F056FF7B
:1013500002D2C4E94E8901E0C4E94E67D5E94623CB
:10136000D4E94E0121F044FDC4E95001D4E94067BD
:10137000300039000022002321F040FF04D2002079
:101380009649C4E952010DE03000390000220023E3
:1013900022F012F804D200209A49C4E9520101E077
:1013A000C4E95267D5E94823D4E9400121F020FD82
:1013B000C4E95401D5E94A23D4E9520121F018FDCA
:1013C000C4E95601D5E94C23D4E93C0121F010FDD4
:1013D000C4E95801D5E94E23D4E9440121F008FDC0
:1013E000C4E95A01D4E95823D4E95A0121F08CFC0C
:1013F000D4E9502321F088FCC4E95C01D4E95423EA
:10140000D4E9560121F080FCD4E95C2321F07CFC76
:10141000C4E95E01D4E95E67D5E95289D5E9500196
:1014200032003B0021F0EAFE02D2C4E960010BE089
:101430003000390042464B4621F0E0FE02D2C4E9BA
:10144000608901E0C4E96067D4E96023D5E9180147
:1014500021F05AFCC4E96201D4E96267D5E95689F2
:10146000D5E9540132003B0021F0C8FE02D2C4E9A4
:1014700064010BE03000390042464B4621F0BEFECD
:1014800002D2C4E9648901E0C4E96467D4E9640173
:1014900021F0D6FF0022DFF8283C22F001F80600F8
:1014A0000F00300039000022002321F0A7FE08D2EF
:1014B00097F000473000390022F0C6F800B24042F1
:1014C00003E03000390022F0BFF8A4F8C001D5E9EC
:1014D0005823D4E9220121F08BFCC4E96601D5E947
:1014E0005A23D4E9240121F083FCC4E96801279838
:1014F0009DF86010052905D1C0F800B02698C0F805
:1015000000B010E09DF86010042907D10068C4F80D
:10151000BC01D4F8BC012699086004E0C0F800B012
:101520002698C0F800B0DAF8200021F07FFAD5E95B
:101530001A2321F05DFCD4E9342321F059FCDAE9C7
:10154000002321F0E1FBCAE90001DAF8200021F0D4
:101550006DFAD5E92A2321F04BFCD4E9442321F08C
:1015600047FCDAE9022321F0CFFBCAE90201DAE9FC
:101570000201D5E92E2321F01FFF04D8D5E92E0161
:10158000CAE902010AE0D5E93001DAE9022321F0D3
:1015900013FF03D8D5E93001CAE9020194F8C30169
:1015A000002801D0012000E000208AF83000DAF89D
:1015B000200021F03BFAD5E9322321F019FCD4E9CF
:1015C0004C2321F015FCDAE9042321F09DFBCAE944
:1015D000040119B0BDE8F08F0000303A0000F0BF00
:1015E00000009039CBA145B6F3FDD03F715B5B782D
:1015F0005E2AB73F7C14AE47E17A943FDEBE0E9C74
:1016000033321C400000F03F3D0AD7A3703D054037
:1016100030B4436880688B62C862D2E91E45C1E974
:101620000045D2E92C45C1E90245022081F830008D
:10163000D2E93445C1E9044530BC70472DE9F64F85
:101640008DB09B46DDF86CA0DAF828100291DAF82C
:101650002C1003914168029A8A1A8168039BC91A67
:101660004368029CA34200D2491E436802938068EB
:101670000390CAF820200298CAF82800CAF824105B
:101680000398CAF82C001A9C2C98D0E90023C4E9CE
:1016900004232598007884F83C022A980068C4F84E
:1016A0002802D4F8280221F0B7F9C4E906011C9DEC
:1016B000D5E90423D4E9060121F09AFBC4E9080125
:1016C000D4E90867D5E90889D5E9060132003B006D
:1016D00021F094FD02D2C4E90A010BE03000390088
:1016E00042464B4621F08AFD02D2C4E90A8901E054
:1016F000C4E90A6794F83C0221F098F9D4E90A2376
:1017000021F076FBC4E90C011D98D0E90023C4E95F
:101710000E231E98D0E90023C4E9102323980078F3
:1017200084F83D020E9821F077F9C4E91201D5E959
:101730000A23D4E9120121F05BFBC4E91401D5E9C5
:101740000C23D4E9140121F053FBC4E91601D5E9B7
:101750000E23D4E9160121F04BFBC4E9180194F8DB
:101760003D0221F063F9D4E9182321F041FBC4E9DB
:101770001A011F98007884F83E02D5E91023D4E9B5
:10178000140121F035FBC4E91C01D4E91C2300201D
:10179000DFF8301921F0B8FAC4E91E01D4E91E239C
:1017A000D4E91E0121F024FB02000B000020DFF829
:1017B000181921F0E9F90022DFF8103921F0FAFBBD
:1017C000C4E92001D4E92023D4E9200121F010FB51
:1017D00002000B00DFF8F808DFF8F81821F0D4F960
:1017E0000022DFF8F43821F08FFA06000F003000F5
:1017F00039000022002321F001FD0AD297F00047B2
:101800003000390021F012FD06000F0097F000476C
:1018100005E03000390021F009FD06000F00DFF877
:10182000BC08DFF8BC1832003B0021F0ADF906001F
:101830000F00D4E920230020DFF89C1821F064FA7F
:1018400002000B003000390021F0B4FBC4E9220192
:10185000D4E9220121F062FD00225FF0804321F0F3
:10186000C7FAC4E92401D5E91223D4E9240121F0FF
:10187000BFFAC4E9260194F83E0221F0D7F8D4E972
:10188000262321F0B5FAC4E92801D4E91023D4E9CC
:101890001A0121F039FAD4E9282321F075F9C4E9B5
:1018A0002A01D4E90423D4E90C0121F02DFAD4E96A
:1018B0000E2321F029FAD4E92A2321F065F9C4E99D
:1018C0002C01D4E92C67D5E91689D5E91401320039
:1018D0003B0021F093FC02D2C4E92E010BE0300062
:1018E000390042464B4621F089FC02D2C4E92E89D8
:1018F00001E0C4E92E67D5E91823D4E92E0121F0CF
:1019000077FAC4E93001DAE90001C4E93201279825
:10191000D0E90023C4E93423D4E93023D4E93401E5
:1019200021F066FAC4E93601D5E92023D4E936016D
:1019300021F05EFAC4E93801D5E92223D4E938015F
:1019400021F056FAC4E93A01D4E93A01D4E9322344
:1019500021F01AF9C4E93C01D5E92423D4E93C017A
:1019600021F046FAC4E93E01D5E92623D4E93E0137
:1019700021F03EFAC4E94001D5E92823D4E9360133
:1019800021F036FAC4E94201D4E94223D4E9400106
:1019900021F0BAF9C4E944012698007884F83F029E
:1019A00094F83F02002803D09AF93000012807DBA1
:1019B00094F83F02002807D19AF93000012803D19A
:1019C000D5E92C01CAE90201DAE90201D5E92E23A1
:1019D00021F0F2FC04D8D5E92E01CAE902010AE09F
:1019E000D5E93001DAE9022321F0E6FC03D8D5E994
:1019F0003001CAE90201DAE90201C4E94601DAE983
:101A00000401C4E94801D4E94467D5E93889D5E936
:101A1000360132003B0021F0F1FB02D2C4E94A0159
:101A20000BE03000390042464B4621F0E7FB02D282
:101A3000C4E94A8901E0C4E94A67D5F8A0010290E7
:101A4000189803900220019004A80090012303AA93
:101A5000012102A8FEF77CFBDDE9040114F5087200
:101A6000C2E9000115F5CC72D2E90001CDE904010B
:101A700014F50872D2E90001CDE9060104200190B5
:101A800008A80090022306AA022104A8FEF760FB22
:101A9000200008A9102221F0A7FC08A8210010228C
:101AA00021F0A2FC0022042108A8FEF707FC020096
:101AB0000B000020DFF82C1621F09AF902000B0031
:101AC000D4E94A0121F060F8C4E94C01D5E93A2390
:101AD000D4E94C0121F08CF9C4E94E01D5E93C234D
:101AE000D4E94E0121F084F9C4E95001D5E93E233F
:101AF000D4E9500121F07CF9C4E95201D4E9520142
:101B0000D4E9482321F040F8C4E95401D5E9402341
:101B1000D4E9540121F06CF9C4E95601D4E95667BF
:101B2000D5E94489D5E9420132003B0021F066FB4A
:101B300002D2C4E958010BE03000390042464B465E
:101B400021F05CFB02D2C4E9588901E0C4E958677E
:101B5000D5E94623D4E9580121F04AF9C4E95A01EC
:101B60002998D0E90023C4E95C23D4E94E23D4E9C1
:101B70005C0121F03DF9C4E95E012898D0E9002319
:101B8000C4E96023D4E94E23D4E9600121F030F99F
:101B9000C4E962012098007884F84002D4E94A67D9
:101BA000D5E94A89D5E9480132003B0021F026FBFE
:101BB00002D2C4E964010BE03000390042464B46D2
:101BC00021F01CFB02D2C4E9648901E0C4E9646726
:101BD00094F8400220F02AFFD4E9642321F008F9A8
:101BE000C4E96601D4E966673000390000220023A9
:101BF00021F004FB05D20020DFF8EC14C4E96801F1
:101C00000EE0300039000022002321F0D5FB05D280
:101C10000020DFF8C414C4E9680101E0C4E9686782
:101C2000D5E94C23D4E9660121F0E2F8C4E96A0160
:101C3000D5E94E23D4E9680121F0DAF8C4E96C0152
:101C4000D4E94623D4E95E0121F05EF8D4E95A23B1
:101C500021F05AF8C4E96E01D4E96A23D4E96C0191
:101C600021F052F8D4E96E2321F04EF8C4E9700156
:101C7000D5E95023D4E91C0121F0BAF8C4E9720176
:101C8000D4E9720121F0DCFB0022DFF8A83D21F04D
:101C900007FC06000F00300039000022002321F06D
:101CA000ADFA07D297F000473000390021F0E2FC8E
:101CB000404203E03000390021F0DCFCC4F82C0283
:101CC000D5E95223D4E9260121F092F8C4E9740140
:101CD000D5E95423D4E92C0121F08AF8C4E976012E
:101CE000D4E97067D5E95889D5E9560132003B003F
:101CF00021F084FA02D2C4E978010BE03000390007
:101D000042464B4621F07AFA02D2C4E9788901E0D2
:101D1000C4E97867D4E97823D5E91A0120F0F4FF03
:101D2000C4E97A01D4E97A67D5E95C89D5E95A0131
:101D300032003B0021F062FA02D2C4E97C010BE0E0
:101D40003000390042464B4621F058FA02D2C4E92D
:101D50007C8901E0C4E97C6719982199229A2B9B20
:101D6000C0B2052809D10D9810600D980860C3F81D
:101D700000B02A98C0F800B019E0C0B204280DD114
:101D80001068C4F83402D4F8340208601868C4F843
:101D90003802D4F838022A9A106008E00D981060D2
:101DA0000D980860C3F800B02A98C0F800B01F98DA
:101DB000007884F841022498007884F84202086888
:101DC000C4F83002D4F8300220F026FEC4E97E01C7
:101DD000D5E95E23D4E97E0121F00AF8C4E9800147
:101DE000D5E96023D4E9800121F002F8C4E9820139
:101DF000D4E98267D5E96489D5E9620132003B0004
:101E000021F0FCF902D2C4E984010BE03000390072
:101E100042464B4621F0F2F902D2C4E9848901E03E
:101E2000C4E9846794F8420220F000FED4E98423D8
:101E300020F0DEFFC4E9860194F8410200280AD0B0
:101E4000D4E986011D9AC2E90001D5E900011E9A74
:101E5000C2E9000109E0D4E986011E9AC2E9000145
:101E6000D5E902011D9AC2E90001DAF8200020F04C
:101E7000DDFDD5E91C2320F0BBFFD4E93E2320F093
:101E8000B7FFDAE9002320F03FFFCAE90001DAF8E2
:101E9000200020F0CBFDD5E92A2320F0A9FFD4E9CA
:101EA000622320F0A5FFDAE9022320F02DFFCAE922
:101EB0000201DAE90201D5E92E2321F07DFA04D8E6
:101EC000D5E92E01CAE902010AE0D5E93001DAE9D3
:101ED000022321F071FA03D8D5E93001CAE90201E1
:101EE00094F83F02002801D0012000E000208AF889
:101EF0003000DAF8200020F099FDD5E9322320F0F7
:101F000077FFD4E9562320F073FFDAE9042320F0A9
:101F1000FBFECAE904010FB0BDE8F08F00210160AB
:101F2000704780B5FFF7FAFF01BD2DE9F0410700CA
:101F30000E0014009846306820F06EFDD4E90423AA
:101F400021F05CF905D23068002802D4D4E9000100
:101F500001E000200021C7E90001D4E902230020AC
:101F6000614920F0D1FE02000B0014001D00306812
:101F700020F052FD22002B0021F01EFA02D8002092
:101F8000306002E03068401C3060D7E90023002058
:101F9000002121F085FB01D0012000E000203872F3
:101FA000387A88F80000387A06990870BDE8F08120
:101FB00000210160704780B5FFF7FAFF01BD2DE9F0
:101FC000F04107000E001400984694F8200006998E
:101FD0000870306820F020FDD4E9042321F00EF9C8
:101FE00005D23068002802D4D4E9000101E00020C5
:101FF0000021C7E90001D4E9022300203A4920F07A
:1020000083FE02000B0014001D00306820F004FD68
:1020100022002B0021F0D0F902D80020306002E02D
:102020003068401C3060D7E900230020002121F0F7
:1020300037FB01D0012000E000203872387A88F8A0
:102040000000BDE8F08110B50400201DFFF769FF16
:102050002000FFF7B0FF10BD2DE9F04D82B08246A1
:102060008B4690461D000A9E0B9C0C9F00205FF043
:10207000804152465B4621F013FB09D100972300B3
:1020800016F13002291D18F11000FFF74EFF14E081
:1020900052465B460020DFF8741E21F001FB08D198
:1020A0000097230016F1080229004046FFF787FF3A
:1020B00003E03078207070783870BDE8F38D000050
:1020C0000000F04000987040A417F6400088D3400C
:1020D000DEBE0E9C33321C400000F03F3D0AD7A309
:1020E000703D05400000303A0000F0BF30B4436856
:1020F00080688B62C862D2E90C45C1E90045D2E92B
:102100002C45C1E90245022081F83000D2E934456E
:10211000C1E90445D2E93C45C1E9064530BC7047F8
:102120002DE9F84F94B08B469046DDF87CA0DAF8A4
:1021300028100291DAF82C1003914168029A8A1A49
:102140008168039BC91A4368029CA34200D2491EBE
:102150004368029380680390CAF820200298CAF866
:102160002800CAF824100398CAF82C001E9CDAE94B
:102170000001C4E908012998D0E90023C4E90A2331
:102180002398007884F84A0221980068C4F8400235
:10219000209DD5F890010290D4F8400203900220CF
:1021A000019004A80090012303AA012102A8FDF7D1
:1021B000CFFFDDE9040114F50E72C2E9000115F547
:1021C000C472D2E90001CDE9040114F50E72D2E91E
:1021D0000001CDE90A010420019006A80090022325
:1021E0000AAA022104A8FDF7B3FF200006A91022C5
:1021F00021F0FAF806A82100102221F0F5F810A825
:1022000015F11001102221F0EFF80CA8290010227E
:1022100021F0EAF804220CA906A8FEF79AF8002893
:1022200006D014F110000CA9102221F0DDF813E003
:10223000042210A906A8FEF7C2F8002806D014F15F
:10224000100010A9102221F0CFF805E014F11000C1
:1022500006A9102221F0C8F806A814F110011022D6
:1022600021F0C2F80022042106A8FEF727F8020098
:102270000B0000205FF0665120F0BAFD06000F0051
:1022800094F84A0220F0D2FB32003B0020F0B0FD6F
:10229000C4E90C01D4E90A23D4E90C0120F034FD8F
:1022A000C4E90E01D5E91223D4E90E0120F0A0FD06
:1022B000C4E91001D4E9100121F07AF802000B0002
:1022C0000020DFF84C1C20F05FFCDFF8482CDFF822
:1022D000483C20F08DFDC4E91201D4E91223D4E971
:1022E000120120F085FDC4E91401D4E9100121F0A8
:1022F000E7F9DFF8202CDFF8203C20F079FD020020
:102300000B00DFF8180CDFF8181C20F03DFCC4E9C6
:102310001601D4E91623D4E9160120F069FDC4E9B9
:102320001801D4E91423D4E9180120F0EDFCC4E924
:102330001A01D4E91A67300039000022002320F086
:102340005DFF0AD297F000473000390020F06EFFA1
:1023500006000F0097F0004705E03000390020F03C
:1023600065FF06000F00C4E91C67D4E91C23DFF8F1
:10237000AC0BDFF8B01B20F0C7FCC4E91E01D5E9A7
:102380001423D4E91E0120F033FDC4E92001D5E96E
:102390001623D4E9200120F02BFDC4E92201404698
:1023A00020F03AFBC4E92401D5E91823D4E924013B
:1023B00020F01EFDC4E92601D5E91A23D4E926013F
:1023C00020F016FDC4E92801D5E91C23D4E9280131
:1023D00020F00EFDC4E92A01D4E92201D4E92A2320
:1023E00020F0D2FBC4E92C01D4E92C67D5E920897F
:1023F000D5E91E0132003B0020F000FF02D2C4E903
:102400002E010BE03000390042464B4620F0F6FE2C
:1024100002D2C4E92E8901E0C4E92E67D5E922235E
:10242000D4E92E0120F0E4FCC4E93001D5E92423ED
:10243000D4E9300120F0DCFCC4E93201D4E93201F6
:10244000D4E9082320F0A0FBC4E93401D5E9262310
:10245000D4E9340120F0CCFCC4E93601D5E92823C5
:10246000D4E9360120F0C4FCC4E938012598D0E94C
:102470000023C4E93A23D4E93023D4E93A0120F017
:10248000B7FCC4E93C01D4E93C23D4E9380120F08D
:102490003BFCC4E93E012498007884F84B0294F890
:1024A0004B02002803D09AF93000012807DB94F88A
:1024B0004B02002807D19AF93000012803D1D5E951
:1024C0002C01CAE90201DAE90201D5E92E2320F044
:1024D00073FF04D8D5E92E01CAE902010AE0D5E963
:1024E0003001DAE9022320F067FF03D8D5E9300193
:1024F000CAE90201DAE90201C4E94001DAE90401AA
:10250000C4E942012698D0E90023C4E94423D4E970
:102510004401D4E93E2320F071FE01D2012000E005
:10252000002084F84C02D5E93A23D4E9440120F094
:102530005FFCC4E94601D4E93E01D4E9462320F01A
:102540005DFE01D2012000E0002084F84D0294F8E5
:102550004D02002804D0D4E94601C4E9480103E053
:10256000D4E93E01C4E9480194F84C02002804D0A3
:10257000D4E94401C4E94A0103E0D4E94801C4E9CB
:102580004A01DAE90601C4E94C01D4E92801D4E999
:102590004C2320F0F9FAC4E94E01D5E93E23D4E9F1
:1025A0004E0120F025FCC4E95001D5E94023D4E9CF
:1025B000500120F01DFCC4E95201D4E94A01D4E9DC
:1025C000522320F0E1FAC4E95401D5E94223D4E9C9
:1025D000540120F00DFCC4E95601D5E94423D4E9A7
:1025E000560120F005FCC4E95801D4E95801D4E9AA
:1025F000422320F0C9FAC4E95A01D5E94623D4E9B7
:102600005A0120F0F5FBC4E95C01D5E94823D4E97F
:102610005C0120F0EDFBC4E95E012898D0E90023BD
:10262000C4E96023D4E95623D4E9600120F0E0FB3B
:10263000C4E962012798D0E90023C4E96423D4E9FE
:102640004023D4E9640120F0D3FBC4E96601D4E956
:102650004A67300039000022002320F0CFFD05D268
:102660000020DFF8CC1DC4E968010EE0300039001D
:102670000022002320F0A0FE05D20020DFF89018F1
:10268000C4E9680101E0C4E96867D5E94A23D4E9EF
:102690004A0120F0ADFBC4E96A01D5E94C23D4E935
:1026A000680120F0A5FBC4E96C01D4E96623D4E9F4
:1026B000620120F029FBD4E95E2320F025FBC4E968
:1026C0006E01D4E96A23D4E96C0120F01DFBD4E942
:1026D0006E2320F019FBC4E97001D4E97067D5E9D5
:1026E0005089D5E94E0132003B0020F087FD02D22F
:1026F000C4E972010BE03000390042464B4620F03D
:102700007DFD02D2C4E9728901E0C4E97267D4E9AF
:102710007223D5E9080120F0F7FAC4E97401D4E97D
:102720007467D5E95489D5E9520132003B0020F0A5
:1027300065FD02D2C4E976010BE030003900424663
:102740004B4620F05BFD02D2C4E9768901E0C4E982
:102750007667D4E9760120F073FE0022DFF8D43CDE
:1027600020F09EFE06000F003000390000220023FA
:1027700020F044FD08D297F000473000390020F0E7
:1027800063FF00B2404203E03000390020F05CFFFC
:10279000A4F84802D5E95623D4E9260120F028FB05
:1027A000C4E97801D5E95823D4E9780120F020FB69
:1027B000C4E97A01D4E97A23DFF86007DFF860170B
:1027C00020F0A2FAC4E97C01D4E97C23D4E97C019D
:1027D00020F00EFB02000B00DFF85C0CDFF85C1C45
:1027E00020F0D2F9DFF8582CDFF8583C20F0E2FB5B
:1027F000C4E97E01D4E97E23D4E97E0120F0F8FA11
:1028000002000B00DFF8400CDFF8401C20F0BCF9A0
:102810000022DFF8FC3620F077FA06000F003000C7
:1028200039000022002320F0E9FC0AD297F000478B
:102830003000390020F0FAFC06000F0097F0004746
:1028400005E03000390020F0F1FC06000F00DFF851
:10285000000CDFF8001C32003B0020F095F9060068
:102860000F00D4E97E230020DFF8A41620F04CFAF4
:1028700002000B003000390020F09CFBC4E980010D
:10288000D4E9800120F04AFD00225FF0804320F06F
:10289000AFFAC4E98201D5E95A23D4E9820120F0D4
:1028A000A7FAC4E98401D5E95C23D4E9840120F0C6
:1028B0009FFAC4E98601D5E95E23D4E9860120F0B8
:1028C00097FAC4E98801D4E90E01D4E9862320F0FF
:1028D0005BF9C4E98A01D5E96023D4E98A0120F0D3
:1028E00087FAC4E98C0122989DF85010052905D17A
:1028F000C0F800B02198C0F800B010E09DF850106A
:10290000042907D10068C4F84402D4F8440221998C
:10291000086004E0C0F800B02198C0F800B0DAF810
:10292000200020F083F8D5E90A2320F061FAD4E9E9
:10293000362320F05DFADAE9002320F0E5F9CAE950
:102940000001DAE90001D5E90E2320F035FD04D8B5
:10295000D5E90E01CAE900010AE0D5E91001DAE97A
:10296000002320F029FD03D8D5E91001CAE90001B0
:10297000DAF8200020F05AF8D5E92A2320F038FAB6
:10298000D4E9562320F034FADAE9022320F0BCF926
:10299000CAE90201DAE90201D5E92E2320F00CFD93
:1029A00004D8D5E92E01CAE902010AE0D5E93001CF
:1029B000DAE9022320F000FD03D8D5E93001CAE9A5
:1029C000020194F84B02002801D0012000E0002011
:1029D0008AF83000DAF8200020F028F8D5E9322310
:1029E00020F006FAD4E95C2320F002FADAE90423A5
:1029F00020F08AF9CAE90401DAE90401D5E93623AD
:102A000020F0DAFC04D8D5E93601CAE904010AE06D
:102A1000D5E93801DAE9042320F0CEFC03D8D5E962
:102A20003801CAE90401D4E92801CAE9060115B050
:102A3000BDE8F08F0000F0412DE9F04D8046140014
:102A40001D000A9E0B9FDDE9080120F0FDFD012815
:102A50000FD0C0F07A81032873D03ED3052800F050
:102A6000D880C0F0A280072800F03B81C0F005812B
:102A70006BE1D8F804001FF0D9FF82468B46D8F8E6
:102A800008001FF0D3FF0022DFF8643D20F0B0F90A
:102A900002000B005046594620F036F9DFF8542D5D
:102AA000DFF8543D20F0A4F9D7E93C2320F0A0F949
:102AB000D7E93E2320F028F920F002FED7E9382399
:102AC00020F096F9D7E93A2320F01EF9C6E908016B
:102AD000D6E90801C6E900016AE1D8F804001FF050
:102AE000A5FF82468B46D8F808001FF09FFF002202
:102AF000DFF8FC3C20F07CF902000B005046594600
:102B000020F002F9DFF8EC2CDFF8EC3C20F070F953
:102B1000D7E9342320F06CF9D7E9362320F0F4F814
:102B200020F0CEFDD7E9302320F062F9D7E9322337
:102B300020F0EAF8C6E90A01D6E90A01C6E900016F
:102B400036E1D8F804001FF071FF82468B46D8F8B2
:102B500008001FF06BFF0022DFF8943C20F048F9DA
:102B600002000B005046594620F0CEF8DFF8842CC6
:102B7000DFF8843C20F03CF9D7E92C2320F038F929
:102B8000D7E92E2320F0C0F820F09AFDD7E92823BA
:102B900020F02EF9D7E92A2320F0B6F8C6E90C0177
:102BA000D6E90C01C6E9000102E1D8F804001FF0E3
:102BB0003DFF82468B46D8F808001FF037FF002201
:102BC000DFF82C3C20F014F902000B005046594667
:102BD00020F09AF8DFF81C2CDFF81C3C20F008F9F4
:102BE000D7E9242320F004F9D7E9262320F08CF834
:102BF00020F066FDD7E9202320F0FAF8D7E9222358
:102C000020F082F8C6E90E01D6E90E01C6E90001FE
:102C1000CEE0D8F804001FF009FF82468B46D8F8B2
:102C200008001FF003FF0022DFF8C43B20F0E0F8AB
:102C300002000B005046594620F066F8DFF8B42B2E
:102C4000DFF8B43B20F0D4F8D7E91C2320F0D0F80B
:102C5000D7E91E2320F058F820F032FDD7E91823D9
:102C600020F0C6F8D7E91A2320F04EF8C6E9100183
:102C7000D6E91001C6E900019AE0D8F804001FF077
:102C8000D5FE82468B46D8F808001FF0CFFE002202
:102C9000DFF85C3B20F0ACF802000B0050465946D0
:102CA00020F032F8DFF84C2BDFF84C3B20F0A0F896
:102CB000D7E9142320F09CF8D7E9162320F024F854
:102CC00020F0FEFCD7E9102320F092F8D7E9122378
:102CD00020F01AF8C6E91201D6E91201C6E900018E
:102CE00066E0D8F804001FF0A1FE82468B46D8F8B3
:102CF00008001FF09BFE0022DFF8F43A20F078F87D
:102D000002000B00504659461FF0FEFFDFF8E42A90
:102D1000DFF8E43A20F06CF8D7E90C2320F068F8EB
:102D2000D7E90E231FF0F0FF20F0CAFCD7E90823F3
:102D300020F05EF8D7E90A231FF0E6FFC6E9140188
:102D4000D6E91401C6E9000132E0D8F804001FF00A
:102D50006DFE82468B46D8F808001FF067FE002201
:102D6000DFF88C3A20F044F802000B005046594638
:102D70001FF0CAFFDFF87C2ADFF87C3A20F038F831
:102D8000D7E9042320F034F8D7E906231FF0BCFF6D
:102D900020F096FCD7E9002320F02AF8D7E9022397
:102DA0001FF0B2FFC6E91601D6E91601C6E9000117
:102DB0000C98D6E90023C0E90023D0E90023C6E936
:102DC0000223D6E902232000290020F011F8C6E9E9
:102DD0000401D6E90401C6E90601BDE8F08DF8B5A5
:102DE0000C0015001FF018FEC4E90001D5E900230E
:102DF000D4E900011FF0FCFFC4E90201D5E9022378
:102E0000D4E902011FF0F4FFC4E90401D5E9042369
:102E1000D4E904011FF0ECFFC4E90601D4E906235C
:102E20003E483F491FF070FFC4E90801D4E9082378
:102E3000D4E908011FF0DCFF02000B00DFF8F80501
:102E4000DFF8F8151FF0A0FEDFF8F425DFF8F43501
:102E500020F0B0F8C4E90A01D4E90A23D4E90A0150
:102E60001FF0C6FF02000B00DFF8DC05DFF8DC1501
:102E70001FF08AFE0022DFF884391FF045FF0600AC
:102E80000F00300039000022002320F0B7F90AD2E9
:102E900097F000473000390020F0C8F906000F0015
:102EA00097F0004705E03000390020F0BFF9060038
:102EB0000F00DFF89C05DFF89C1532003B001FF087
:102EC00063FE06000F00D4E90A230020DFF82C1966
:102ED0001FF01AFF02000B003000390020F06AF8E2
:102EE000C4E90C01D4E90C0120F018FA00225FF0CB
:102EF00080431FF07DFFC4E90E01D5E90623D4E924
:102F00000E011FF075FFC4E91001F1BD000008407B
:102F10000000F03F9A9999999999B93FCBA145B68C
:102F2000F3FDD03FF3FDD0BF30B443688068CB627F
:102F30000863D2E90845C1E90045D2E91045C1E975
:102F40000245D2E91245C1E90445D2E92445C1E967
:102F5000064530BC70475FF0FF3180F83410704791
:102F60002DE9F84F0500080014009A46DAF82C20E5
:102F7000DAF8306069688B1AA968891B6E68964216
:102F800000D2491E6A68AE68CAF82430CAF82C20FC
:102F9000CAF82810CAF83060DAE90023C4E900232F
:102FA0001FF03AFDC4E902010A9DD5E90A23D4E9DC
:102FB00002011FF01DFFC4E90401D4E90467D5E94B
:102FC0000E89D5E90C0132003B0020F017F902D23E
:102FD000C4E906010BE03000390042464B4620F0C0
:102FE0000DF902D2C4E9068901E0C4E90667D4E913
:102FF0000601D4E900231FF0C7FDC4E90801D4E9A4
:1030000008230020002120F04BFB01D1012000E02B
:1030100000208AF83400DDF830B040B2002802D039
:10302000012824D04DE0D4E900010D9AC2E9000145
:10303000DBE90001C4E94A01D4E94A230020DFF8B2
:10304000BC171FF061FEC4E94E0100200021C4E955
:103050005001D4E95001CBE90001D4E94E010B9AAB
:10306000C2E90001D4E90801C4E94C0129E0DBE927
:103070000001C4E94401D4E94423D5E902011FF069
:1030800043FEC4E94601D4E94667D5E90689D5E996
:10309000040132003B0020F0B1F802D2C4E948013B
:1030A0000BE03000390042464B4620F0A7F802D230
:1030B000C4E9488901E0C4E94867D4E94801CBE99B
:1030C0000001DAE90201C4E90A01DBE90001C4E90F
:1030D0000C01DAE90401C4E90E010D98D0E90023DE
:1030E000C4E91023D4E91001D4E90E231FF04CFDEC
:1030F000C4E91201D4E912230020002120F0D0FA03
:1031000008D0D4E90E010E9AC2E90001D4E91201F7
:10311000C4E94201D5E91401D4E90C2320F06EF88A
:1031200004D2D4E90601C4E914011FE0D5E9002363
:10313000D4E94C011FF05CFEC4E95201D4E94C0112
:10314000D4E942231FF020FDC4E95401D4E95423FB
:10315000D4E952011FF0D8FDD4E906231FF0D4FDB5
:10316000C4E95601D4E95601C4E91401D4E91401B3
:10317000D4E90A231FF008FDC4E91601D4E9162397
:103180000020002120F08CFA03D0D4E91601C4E914
:103190004001D4E9400131F00041C4E918010B9825
:1031A000D0E90023C4E91A23D4E91A01D5E916238A
:1031B0001FF000FFC4E91C01D4E91C67D5E91A8996
:1031C000D5E9180132003B0020F018F802D2C4E91A
:1031D0001E010BE03000390042464B4620F00EF84D
:1031E00002D2C4E91E8901E0C4E91E67D4E90601E0
:1031F000D4E91E231FF0C8FCC4E92001D4E91E2332
:10320000D4E906011FF080FDC4E92201D5E91C01C3
:10321000D4E91A231FF0CEFEC4E92401D4E9242303
:10322000D4E918011FF0E4FDC4E92601D4E92667BA
:10323000D5E92089D5E91E0132003B001FF0DEFFF1
:1032400002D2C4E928010BE03000390042464B4667
:103250001FF0D4FF02D2C4E9288901E0C4E928673D
:10326000DAF824001FF0E2FBDFF88825DFF8883564
:103270001FF0BEFD06000F00DAF828001FF0D6FB95
:10328000DFF87025DFF8243C1FF0B2FD32003B0070
:103290001FF03AFDD5E922231FF0AAFD06000F001A
:1032A000C4E92A67D4E92823D4E92A011FF0A0FD44
:1032B000C4E92C01DAE90601C4E92E01D4E91401BC
:1032C000D4E92E231FF060FCC4E93001D4E92C01BD
:1032D000D4E930231FF092FF01D2012000E000204A
:1032E00084F86401D5E92623D4E928011FF080FD84
:1032F000C4E93201D4E93223D4E92A011FF078FD70
:10330000C4E93401D4E93001D4E934231FF076FF55
:1033100001D2012000E0002084F8650194F86501E5
:10332000002804D0D4E93401C4E9360103E0D4E92B
:103330003001C4E9360194F86401002804D0D4E9CE
:103340002C01C4E9380103E0D4E93601C4E93801AD
:10335000D4E93823D4E92E011FF0D6FCC4E93A01A0
:10336000D4E92201D4E93A231FF048FF01D2012019
:1033700000E0002084F86601D4E93A01D4E9202372
:103380001FF03CFF01D2012000E0002084F867011B
:1033900094F86701002804D0D4E92001C4E93C0175
:1033A00003E0D4E93A01C4E93C0194F8660100283D
:1033B00004D0D4E92201C4E93E0103E0D4E93C0190
:1033C000C4E93E01D5E92823D4E93E011FF010FDF0
:1033D00020F036F80022DFF8183420F061F80600FB
:1033E0000F0030003900002200231FF007FF07D232
:1033F00097F000473000390020F03CF9404203E0EC
:103400003000390020F036F9C4F86001D4E9060133
:10341000CAE90001D4E91401CAE90201D4E91001A2
:10342000CAE90401D4E93A01CAE90601BDE8F18F0D
:103430000000F0BF0000F040715B5B785E2AB73F90
:103440007C14AE47E17A943FDEBE0E9C33321C40C2
:103450003D0AD7A3703D05402DE9F04D804614008C
:103460001D000A9E0B9FDDE9080120F0EDF8012800
:103470000FD0C0F06C8103286FD03CD3052800F03A
:10348000D080C0F09C80072800F02F81C0F0FB8026
:103490005DE1D8F804001FF0C9FA82468B46D8F8DF
:1034A00008001FF0C3FA0022D14B1FF0A1FC02005C
:1034B0000B00504659461FF027FCCE4ADFF8F03982
:1034C0001FF096FCD7E93C231FF092FCD7E93E237E
:1034D0001FF01AFC20F0F4F8D7E938231FF088FC1D
:1034E000D7E93A231FF010FCC6E90A01D6E90A0120
:1034F000C6E900015CE1D8F804001FF097FA8246A3
:103500008B46D8F808001FF091FA0022B84B1FF044
:103510006FFC02000B00504659461FF0F5FBB54A00
:10352000DFF88C391FF064FCD7E934231FF060FC0E
:10353000D7E936231FF0E8FB20F0C2F8D7E93023A3
:103540001FF056FCD7E932231FF0DEFBC6E90C0161
:10355000D6E90C01C6E900012AE1D8F804001FF001
:1035600065FA82468B46D8F808001FF05FFA002201
:103570009F4B1FF03DFC02000B00504659461FF0C8
:10358000C3FB9C4ADFF828391FF032FCD7E92C2313
:103590001FF02EFCD7E92E231FF0B6FB20F090F889
:1035A000D7E928231FF024FCD7E92A231FF0ACFB1E
:1035B000C6E90E01D6E90E01C6E90001F8E0D8F827
:1035C00004001FF033FA82468B46D8F808001FF03B
:1035D0002DFA0022864B1FF00BFC02000B00504618
:1035E00059461FF091FB834ADFF8C4381FF000FCF6
:1035F000D7E924231FF0FCFBD7E926231FF084FB27
:1036000020F05EF8D7E920231FF0F2FBD7E9222350
:103610001FF07AFBC6E91001D6E91001C6E90001E6
:10362000C6E0D8F804001FF001FA82468B46D8F8AD
:1036300008001FF0FBF900226D4B1FF0D9FB0200C0
:103640000B00504659461FF05FFB6A4ADFF86038AE
:103650001FF0CEFBD7E91C231FF0CAFBD7E91E23BE
:103660001FF052FB20F02CF8D7E918231FF0C0FB05
:10367000D7E91A231FF048FBC6E91201D6E9120167
:10368000C6E9000194E0D8F804001FF0CFF98246A3
:103690008B46D8F808001FF0C9F90022544B1FF0E0
:1036A000A7FB02000B00504659461FF02DFB514A64
:1036B000DFF8FC371FF09CFBD7E914231FF098FBC1
:1036C000D7E916231FF020FB1FF0FAFFD7E91023DC
:1036D0001FF08EFBD7E912231FF016FBC6E9140179
:1036E000D6E91401C6E9000162E0D8F804001FF031
:1036F0009DF982468B46D8F808001FF097F9002202
:103700003B4B1FF075FB02000B00504659461FF063
:10371000FBFA384ADFF898371FF06AFBD7E90C2329
:103720001FF066FBD7E90E231FF0EEFA1FF0C8FF6B
:10373000D7E908231FF05CFBD7E90A231FF0E4FA5E
:10374000C6E91601D6E91601C6E9000130E0D8F84D
:1037500004001FF06BF982468B46D8F808001FF072
:1037600065F90022224B1FF043FB02000B0050467C
:1037700059461FF0C9FA1F4ADFF834371FF038FBEB
:10378000D7E904231FF034FBD7E906231FF0BCFA66
:103790001FF096FFD7E900231FF02AFBD7E9022389
:1037A0001FF0B2FAC6E91801D6E91801C6E900010E
:1037B0000C98D6E90023C0E90023D0E90023C6E92C
:1037C0000223D6E90223200029001FF011FBC6E9DD
:1037D0000401D7E94001D6E904231FF009FBC6E93B
:1037E0000601D6E90601C6E90801BDE8F08D000032
:1037F0000000F041FCA9F1D24D62603F0000F03FB3
:10380000002280B289B2884205D280B240F60C0113
:10381000884200DA01221000C0B27047002289B24B
:1038200080B2814203D280B2972800DB01221000CF
:10383000C0B2704710B5DFF8040E806B012818D1B4
:103840000120DFF8701681F871010020DFF89C1C60
:1038500088740120DFF8941C487000200021DFF8F4
:103860005426C2E91C010120DFF8481681F86101E5
:103870001BE3DFF8C80D806B022840F0558105205E
:10388000DFF8301681F87101DFF8B00D007B0128F8
:1038900078D10320DFF81C1681F890010120DFF8B1
:1038A000141681F893010020DFF80816C1F82001F2
:1038B000DFF8380C4068DFF8381CC1F86001DFF829
:1038C000300CD0F860011FF0A7F8DFF8242CC2E913
:1038D0001801DFF8E405D0E93423DFF8144CD4E90B
:1038E00018011FF085FADFF8082CC2E91A01DFF889
:1038F000C805D0E93623DFF8F84BD4E91A011FF0E8
:1039000077FADFF8EC2BC2E91C01DFF8E40BD0E911
:103910001C23DFF8A005C0E91C230020DFF8CC1B26
:1039200088740020DFF8C41B4870DFF88805B0F801
:103930005401DFF8B81B08810120DFF8781581F801
:1039400061010020DFF86C1581F863010020DFF8C9
:10395000641581F864010120DFF8581581F86201CF
:10396000DFF8500590F86501002805D10120DFF847
:10397000441581F8650198E20020DFF8381581F8D8
:10398000650192E2DFF8B40C007B032873D10220BA
:10399000DFF8201581F890010120DFF8181581F873
:1039A00092010020DFF80C15C1F82001DFF83C0B74
:1039B0004068DFF83C1BC1F86001DFF8340BD0F839
:1039C00060011FF029F8DFF8282BC2E91801DFF8A1
:1039D000E804D0E93423DFF8184BD4E918011FF0CC
:1039E00007FADFF80C2BC2E91A01DFF8CC04D0E9A2
:1039F0003623DFF8FC4AD4E91A011FF0F9F9DFF8A1
:103A0000F02AC2E91C01DFF8E80AD0E91C23DFF83C
:103A1000A404C0E91C230020DFF8D01A8874002019
:103A2000DFF8C81A4870DFF88C04B0F85401DFF8EA
:103A3000BC1A08810120DFF87C1481F861010020A4
:103A4000DFF8701481F863010120DFF8681481F851
:103A50006201DFF8600490F86501002805D10120BB
:103A6000DFF8501481F865011FE20020DFF84414EC
:103A700081F8650119E2DFF8C40B007B022840F0F1
:103A800014820120DFF82C1481F890010120DFF866
:103A9000241481F894010020DFF81814C1F82001E3
:103AA000DFF8480A4068DFF8481AC1F86401DFF817
:103AB0000C24DFF80C14DFF8380AD0F86401FFF7A3
:103AC0008EF9DFF82C0AD0E9E223DFF8E803C0E939
:103AD0001C230020DFF8141A88740020DFF80C1A69
:103AE0004870DFF8D003B0F85401DFF8001A0881FD
:103AF0000120DFF8C01381F861010020DFF8B41362
:103B000081F86301DFF8AC0390F86501002805D166
:103B10000120DFF8A01381F86501C6E10020DFF87D
:103B2000941381F86501C0E1DFF8100B806B032866
:103B300040F031810420DFF87C1381F87101DFF857
:103B4000FC0A007B01286DD10320DFF8681381F89F
:103B500091010120DFF85C1381F896010020DFF865
:103B60005413C1F82001DFF884094068DFF8801998
:103B7000C1F86001DFF87809D0F860011EF04CFF51
:103B8000DFF86C29C2E91801CB48D0E93423DFF80B
:103B90006049D4E918011FF02BF9DFF85429C2E974
:103BA0001A01C548D0E93623DFF84449D4E91A019F
:103BB0001FF01EF9DFF83829C2E91C01DFF83009CF
:103BC000D0E91C23BB48C0E91C230020DFF81C19E6
:103BD00088740020DFF814194870B648B0F8540112
:103BE000DFF8081908810120B24981F8610100203D
:103BF000B04981F863010020AE4981F864010120D9
:103C0000AC4981F86201AB4890F86501002804D105
:103C10000120A84981F8650147E10020A54981F804
:103C2000650142E1DFF8140A007B032866D1022017
:103C3000A04981F8910101209E4981F89701002057
:103C40009C49C1F82001DFF8A4084068DFF8A018FB
:103C5000C1F86001DFF89808D0F860011EF0DCFEC2
:103C6000DFF88C28C2E918019348D0E93423DFF843
:103C70008048D4E918011FF0BBF8DFF87428C2E9C6
:103C80001A018D48D0E93623DFF86448D4E91A01D7
:103C90001FF0AEF8DFF85828C2E91C01DFF8500821
:103CA000D0E91C238348C0E91C230020DFF83C181E
:103CB00088740020DFF8341848707E48B0F854014A
:103CC000DFF82818088101207A4981F86101002075
:103CD000784981F863010120764981F862017548CD
:103CE00090F86501002804D10120724981F865012E
:103CF000DBE000206F4981F86501D6E0DFF83C0980
:103D0000007B022840F0D18001206A4981F89101AE
:103D10000120684981F8950100206649C1F8200119
:103D2000DFF8C8074068DFF8C817C1F86401634AC4
:103D30006349DFF8BC07D0F86401FFF750F8DFF8FB
:103D4000B007D0E9E2235B48C0E91C230020DFF87C
:103D50009C1788740020DFF8941748705548B0F815
:103D60005401DFF8881708810120524981F8610168
:103D70000020504981F863014E4890F86501002801
:103D800004D101204B4981F865018EE000204949AA
:103D900081F8650189E0DFF8A408806B042842D12E
:103DA000DFF89808007B01283DD10320414981F8C4
:103DB00071010020DFF8341788740020DFF82C1719
:103DC00048703C48B0F85401DFF820170881002003
:103DD0000021384AC2E91C010120364981F89801C6
:103DE00000203449C1F820010120324981F86101E5
:103DF0000020304981F8630101202E4981F86401D7
:103E000001202C4981F862012A4890F865010028B8
:103E100004D10120274981F8650146E000202549A9
:103E200081F8650141E0DFF81408806B05283CD17A
:103E30000220204981F871010020DFF8B016887453
:103E40000020DFF8A81648701A48B0F85401DFF8CF
:103E50009C16088100200021164AC2E91C0101209D
:103E6000144981F86F0100201249C1F82001012096
:103E7000104981F8610100200E4981F8630100209A
:103E80000C4981F8640101200A4981F8620109485E
:103E900090F86501002804D10120064981F86501E8
:103EA00003E00020034981F8650110BD4D626041C7
:103EB0004D62603FE8180020000000204003002011
:103EC000180F002010B596B0DFF8D00D90F89601CD
:103ED000012814D0C1F00981032800F0F58226D30F
:103EE000052800F0DC85C0F0F483072800F0DA86AE
:103EF000C0F0BC86082800F0298701F0F6B8002041
:103F0000DFF89C1DDFF8944DD4E920231FF052F810
:103F10001FF0B0FBDFF8841DD1F82011814204D3DB
:103F20000920DFF8781D81F8960101F06ABBDFF8FF
:103F30000C07407B002840F0F8800320DFF85C1D70
:103F400081F896010020DFF8541DC1F82001DFF848
:103F50004C0DD0E91C23DFF8800DDFF8801D1EF02A
:103F6000D3FEDFF8382DC2E91C01DFF8D0068069E6
:103F7000DFF87C15C1F84801DFF870054068DFF80C
:103F80007015C1F84C01DFF8B406406ADFF860151F
:103F9000C1F85001DFF8A4060069DFF85415C1F834
:103FA0005401DFF898060078DFF8441581F86E01B7
:103FB000DFF82C0D1490DFF82C0D1390DFF8280D8E
:103FC0001290DFF8280D1190DFF8240D1090DFF823
:103FD000240D0F90DFF8200D0E90DFF8200D0D90CE
:103FE000DFF81C0D0C90DFF81C0D0B90DFF8180D9E
:103FF0000A90DFF8180D0990DFF8140D0890DFF82B
:10400000140D0790DFF8100D0690DFF8100D0590E5
:10401000DFF80C0D0490DFF80C0D0390DFF8080DAD
:104020000290DFF8CC0490F86E010190DFF8C00434
:10403000D0F854010090DFF8B804D0F85031DFF820
:10404000B004D0F84C21DFF8A804D0F84811DFF80C
:10405000DC0C0068FDF7F2FADFF8D42CD2E900019D
:104060000022DFF8D03C1FF0C9F80FD20022002355
:104070001FF0A2F905D81FF0E7FADFF870140881E5
:1040800009E00020DFF86414088104E04FF6FF70B7
:10409000DFF858140881DFF8A02CD2E900010022D3
:1040A000DFF8983C1FF0AAF811D20022DFF8903C0C
:1040B0001FF082F905D81FF0C7FADFF83014C86185
:1040C0000AE05FF00040DFF82414C86104E07FF0EC
:1040D0000040DFF81814C861DFF8682CD2E900014D
:1040E0000022DFF8583C1FF089F811D20022DFF8D7
:1040F000503C1FF061F905D81FF0A6FADFF8EC1369
:1041000088610AE05FF00040DFF8E013886104E0B6
:104110007FF00040DFF8D4138861DFF8D403D0F8D3
:10412000CC08DFF8C8130862CCE10020DFF8181CC7
:10413000DFF8684BD4E920231EF03CFF1FF09AFA09
:10414000DFF8581BD1F820118142C0F0E880002030
:10415000DFF8981381F826000320DFF8401B81F870
:1041600096010020DFF8341BC1F82001DFF82C0B8A
:10417000D0E91C23DFF8600BDFF8601B1EF0C4FDE4
:10418000DFF8182BC2E91C01DFF8B0048069DFF802
:104190006013C1F84801D5484068D549C1F84C01C1
:1041A000DFF89804406AD249C1F85001DFF88C0466
:1041B0000069CF49C1F85401DFF880040078CC4988
:1041C00081F86E01DFF8180B1490DFF8180B1390CC
:1041D000DFF8140B1290DFF8140B1190DFF8100BBE
:1041E0001090DFF8100B0F90DFF80C0B0E90DFF83B
:1041F0000C0B0D90DFF8080B0C90DFF8080B0B9000
:10420000DFF8040B0A90DFF8040B0990DFF8000BCD
:104210000890DFF8000B0790DFF8FC0A0690DFF843
:10422000FC0A0590DFF8F80A0490DFF8F80A03901A
:10423000DFF8F40A0290AE4890F86E010190AC48A5
:10424000D0F854010090AA48D0F85031A848D0F8CE
:104250004C21A748D0F84811DFF8D00A0068FDF7D4
:10426000EDF9DFF8CC2AD2E900010022DFF8C43AE8
:104270001EF0C4FF0DD2002200231FF09DF804D8C9
:104280001FF0E2F99949088107E000209749088169
:1042900003E04FF6FF7095490881DFF89C2AD2E9C8
:1042A00000010022DFF8943A1EF0A8FF0FD200228E
:1042B000DFF88C3A1FF080F804D81FF0C5F98B495D
:1042C000C86108E05FF000408849C86103E07FF002
:1042D00000408649C861DFF86C2AD2E9000100225B
:1042E000DFF8583A1EF08AFF0FD20022DFF8503A6A
:1042F0001FF062F804D81FF0A7F97C49886108E034
:104300005FF000407949886103E07FF00040774921
:1043100088617748D0F8CC0874490862D2E0DFF8A9
:104320007C09D0E91C23DFF8B009DFF8B0191EF0D2
:10433000EBFCDFF86829C2E91C01C04880696C49C0
:10434000C1F84801694840686949C1F84C01BB4857
:10435000406A6749C1F85001B84800696449C1F82A
:104360005401B6480078624981F86E01DFF870099F
:104370001490DFF870091390DFF86C091290DFF8E1
:104380006C091190DFF868091090DFF868090F9048
:10439000DFF864090E90DFF864090D90DFF860091A
:1043A0000C90DFF860090B90DFF85C090A90DFF8E9
:1043B0005C090990DFF858090890DFF85809079060
:1043C000DFF854090690DFF854090590DFF850092A
:1043D0000490DFF850090390DFF84C09029044483C
:1043E00090F86E0101904248D0F854010090404886
:1043F000D0F850313E48D0F84C213D48D0F8481113
:10440000DFF828090068FDF719F9DFF82429D2E957
:1044100000010022DFF81C391EF0F0FE0DD2002250
:1044200000231EF0C9FF04D81FF00EF92F490881A0
:1044300007E000202D49088103E04FF6FF702B496B
:104440000881DFF8F428D2E900010022DFF8EC3817
:104450001EF0D4FE0FD20022DFF8E4381EF0ACFFCD
:1044600004D81FF0F1F82149C86108E05FF000406E
:104470001E49C86103E07FF000401C49C861DFF8B5
:10448000C428D2E900010022DFF8B0381EF0B6FEE1
:104490000FD20022DFF8A8381EF08EFF04D81FF0DC
:1044A000D3F81249886108E05FF000400F49886145
:1044B00003E07FF000400D4988610D48D0F8CC083A
:1044C0000A49086201F09DB8DFF8D007D0F8200152
:1044D00032280FD30820DFF8C41781F89601002096
:1044E000DFF8B817C1F82001F1E000BFD41F0020A9
:1044F000D00B0020DFF8A407D0E91C23DFF8D80791
:10450000DFF8D8171EF000FCDFF89027C2E91C0185
:104510004A488069DFF8A41DC1F84801DFF8A00D02
:104520004068DFF8981DC1F84C014448406ADFF844
:104530008C1DC1F8500141480069DFF8801DC1F8A9
:1045400054013E480078DFF8741D81F86E01DFF8F1
:1045500090071490DFF88C071390DFF88C07129007
:10456000DFF888071190DFF888071090DFF88407DC
:104570000F90DFF884070E90DFF880070D90DFF8CA
:1045800080070C90DFF87C070B90DFF87C070A901F
:10459000DFF878070990DFF878070890DFF87407EC
:1045A0000790DFF874070690DFF870070590DFF8D2
:1045B00070070490DFF86C070390DFF86C07029037
:1045C000DFF8F80C90F86E010190DFF8F00CD0F8ED
:1045D00054010090DFF8E40CD0F85031DFF8DC0C27
:1045E000D0F84C21DFF8D40CD0F84811DFF83C07A4
:1045F0000068FDF723F8DFF83827D2E90001002230
:10460000DFF830371EF0FAFD0FD2002200231EF033
:10461000D3FE05D81FF018F8DFF8A41C088109E0C4
:104620000020DFF89C1C088104E04FF6FF70DFF8E3
:10463000901C0881DFF8002702E000BFB01D0020B9
:10464000D2E900010022DFF8F4361EF0D7FD11D2C6
:104650000022DFF8EC361EF0AFFE05D81EF0F4FFA6
:10466000DFF85C1CC8610AE05FF00040DFF8501C16
:10467000C86104E07FF00040DFF8441CC861DFF847
:10468000C426D2E900010022DFF8B0361EF0B6FDE4
:1046900011D20022DFF8A8361EF08EFE05D81EF0DB
:1046A000D3FFDFF81C1C88610AE05FF00040DFF8F0
:1046B000101C886104E07FF00040DFF8041C886172
:1046C000DFF8F80BD0F8CC08DFF8F41B086200F034
:1046D00098BFDFF8C825D2E91C0131F00041DFF8AE
:1046E000E42BDFF8E43B1EF089FD80F0F08005202C
:1046F000DFF8A81581F896010020DFF8A015C1F8B1
:10470000200100200021DFF89425C2E91C01DFF818
:10471000BC0B8069DFF8A41BC1F84801DFF8A00BCF
:104720004068DFF8981BC1F84C01DFF8A00B406A25
:10473000DFF8881BC1F85001DFF8900B0069DFF843
:104740007C1BC1F85401DFF8840B0078DFF86C1B88
:1047500081F86E01DFF888051490DFF88805139062
:10476000DFF884051290DFF884051190DFF88005EA
:104770001090DFF880050F90DFF87C050E90DFF8D1
:104780007C050D90DFF878050C90DFF878050B902C
:10479000DFF874050A90DFF874050990DFF87005FA
:1047A0000890DFF870050790DFF86C050690DFF8D9
:1047B0006C050590DFF868050490DFF86805039044
:1047C000DFF864050290DFF8F40A90F86E010190BA
:1047D000DFF8E80AD0F854010090DFF8E00AD0F8DA
:1047E0005031DFF8D80AD0F84C21DFF8D00AD0F8E1
:1047F0004811DFF838050068FCF720FFDFF83025A6
:10480000D2E900010022DFF82C351EF0F7FC0FD2B0
:10481000002200231EF0D0FD05D81EF015FFDFF8A2
:10482000A01A088109E00020DFF8941A088104E04A
:104830004FF6FF70DFF8881A0881DFF8FC24D2E910
:1048400000010022DFF8F4341EF0D8FC11D200225F
:10485000DFF8EC341EF0B0FD05D81EF0F5FEDFF8F1
:10486000601AC8610AE05FF00040DFF8541AC861BE
:1048700004E07FF00040DFF8481AC861DFF8C42484
:10488000D2E900010022DFF8B4341EF0B7FC11D2E7
:104890000022DFF8AC341EF08FFD05D81EF0D4FEE8
:1048A000DFF81C1A88610AE05FF00040DFF8101A98
:1048B000886104E07FF00040DFF8041A8861DFF8C7
:1048C000FC09D0F8CC08DFF8F8190862E5E0DFF859
:1048D000CC03D0E91C23DFF8300DDFF8301D1EF0CB
:1048E00013FADFF8B823C2E91C01DFF8E009806998
:1048F000DFF8C819C1F84801DFF8C4094068DFF8DB
:10490000BC19C1F84C01DFF8C409406ADFF8AC19E2
:10491000C1F85001DFF8B4090069DFF8A019C1F847
:104920005401DFF8A8090078DFF8901981F86E01CA
:10493000DFF8AC031490DFF8AC031390DFF8A803A2
:104940001290DFF8A8031190DFF8A4031090DFF8AD
:10495000A4030F90DFF8A0030E90DFF8A0030D90E2
:10496000DFF89C030C90DFF89C030B90DFF89803B2
:104970000A90DFF898030990DFF894030890DFF8B5
:1049800094030790DFF890030690DFF890030590FA
:10499000DFF88C030490DFF88C030390DFF88803C2
:1049A0000290DFF8180990F86E010190DFF80C0909
:1049B000D0F854010090DFF80409D0F85031DFF846
:1049C000FC08D0F84C21DFF8F408D0F84811DFF8E3
:1049D0005C030068FCF732FEDFF85423D2E90001E3
:1049E0000022D44B1EF00AFC0FD2002200231EF03E
:1049F000E3FC05D81EF028FEDFF8C418088109E0A2
:104A00000020DFF8BC18088104E04FF6FF70DFF8E3
:104A1000B0180881C84AD2E900010022C74B1EF035
:104A2000EDFB10D20022C64B1EF0C6FC05D81EF0CE
:104A30000BFEDFF88C18C8610AE05FF00040DFF879
:104A40008018C86104E07FF00040DFF87418C86186
:104A5000BC4AD2E900010022B84B1EF0CFFB10D2B5
:104A60000022B74B1EF0A8FC05D81EF0EDFDDFF8C4
:104A7000501888610AE05FF00040DFF84418886150
:104A800004E07FF00040DFF838188861DFF82C0878
:104A9000D0F8CC08DFF82818086200F0B2BD00207A
:104AA000DFF86C1B7D4CD4E920231EF083FA1EF046
:104AB000E1FD7A49D1F82011814212D306207749CD
:104AC00081F8960100207549C1F820010120DFF826
:104AD000F01748707148B0F85401DFF8E417088106
:104AE000C2E0DFF8E8078069DFF8D017C1F84801B5
:104AF000DFF8CC074068DFF8C417C1F84C01DFF8D5
:104B0000CC07406ADFF8B417C1F85001DFF8BC07E2
:104B10000069DFF8A817C1F85401DFF8B007007882
:104B2000DFF8981781F86E016D4814906D48139066
:104B30006D4812906D4811906D4810906D480F901F
:104B40006D480E906D480D906D480C906D480B901F
:104B50006D480A906D4809906D4808906D4807901F
:104B60006D4806906D4805906D4804906D4803901F
:104B70006D480290DFF8440790F86E010190DFF86D
:104B80003C07D0F854010090DFF83007D0F85031DE
:104B9000DFF82807D0F84C21DFF82007D0F84811BB
:104BA00062480068FCF74AFD614AD2E90001002230
:104BB000604B1EF023FB0FD2002200231EF0FCFBF3
:104BC00005D81EF041FDDFF8F816088109E0002045
:104BD000DFF8EC16088104E04FF6FF70DFF8E0160E
:104BE0000881554AD2E900010022544B1EF006FB11
:104BF00010D20022524B1EF0DFFB05D81EF024FD20
:104C0000DFF8BC16C8610AE05FF00040DFF8B016BC
:104C1000C86104E07FF00040DFF8A416C861494A8B
:104C2000D2E900010022454B1EF0E8FA10D2002222
:104C3000434B1EF0C1FB05D81EF006FDDFF88016C1
:104C400088610AE05FF00040DFF87416886104E0D4
:104C50007FF00040DFF868168861DFF86006D0F862
:104C6000CC08DFF85C16086200F0CBBC00200C49D1
:104C70000A4CD4E920231EF09DF91EF0FBFC0749E5
:104C8000D1F82011814207D30720044981F8960109
:104C90000120DFF82C16887400F0B3BCE81800205F
:104CA0000000E03F0020DFF86C1981F89601002039
:104CB000DFF8601981F891010620DFF8581981F8B2
:104CC00071010120DFF8F815C8700220DFF84419DF
:104CD00081F8AE0100F095BCFCA9F1D24D6260BF35
:104CE00058190020D4190020D01900205019002094
:104CF00048190020101900204D1A00204C1A0020DD
:104D00004B1A00204A1A0020CC190020C819002094
:104D1000481A0020471A0020081900200019002016
:104D2000E0060020281B002070120020D0A40208FA
:104D3000601400200000F040401400200000E0411A
:104D40000000E0C148140020000014400020DFF8FB
:104D5000C018DFF8C048D4E920231EF02BF91EF05C
:104D600089FCDFF8B018D1F820118142C0F0F3803F
:104D70000420DFF8A01881F89601DFF89808D0E940
:104D80001C23DFF88408DFF884181DF0BDFFDFF86E
:104D90008428C2E91C01DFF834058069DFF81C159E
:104DA000C1F84801DFF818054068DFF81015C1F8B0
:104DB0004C01DFF81805406ADFF80015C1F8500112
:104DC000DFF808050069DFF8F414C1F85401DFF8D2
:104DD000FC040078DFF8E41481F86E01DFF838088D
:104DE0001490DFF838081390DFF834081290DFF8D9
:104DF00034081190DFF830081090DFF830080F9079
:104E0000DFF82C080E90DFF82C080D90DFF828084A
:104E10000C90DFF828080B90DFF824080A90DFF8E0
:104E200024080990DFF820080890DFF82008079090
:104E3000DFF81C080690DFF81C080590DFF818085A
:104E40000490DFF818080390DFF814080290DFF8E8
:104E50006C0490F86E010190DFF86004D0F8540102
:104E60000090DFF85804D0F85031DFF85004D0F843
:104E70004C21DFF84804D0F84811DFF8E807006853
:104E8000FCF7DCFBDFF8E027D2E900010022DFF8C5
:104E9000DC371EF0B3F90FD2002200231EF08CFA8B
:104EA00005D81EF0D1FBDFF81814088109E00020B6
:104EB000DFF80C14088104E04FF6FF70DFF80014EF
:104EC0000881DFF8AC27D2E900010022DFF8A4371F
:104ED0001EF094F911D20022DFF89C371EF06CFA14
:104EE00005D81EF0B1FBDFF8D813C8610AE05FF007
:104EF0000040DFF8CC13C86104E07FF00040DFF829
:104F0000C013C861DFF87427D2E900010022DFF87E
:104F100064371EF073F911D20022DFF85C371EF0FF
:104F20004BFA05D81EF090FBDFF8941388610AE075
:104F30005FF00040DFF88813886104E07FF00040F4
:104F4000DFF87C138861DFF87403D0F8CC08DFF851
:104F500070130862C8E0DFF874038069DFF85C133F
:104F6000C1F84801DFF858034068D449C1F84C0142
:104F7000DFF85803406AD149C1F85001D3480069AD
:104F8000CE49C1F85401D1480078CC4981F86E016E
:104F9000DFF884061490DFF884061390DFF88006AB
:104FA0001290DFF880061190DFF87C061090DFF891
:104FB0007C060F90DFF878060E90DFF878060D90EB
:104FC000DFF874060C90DFF874060B90DFF87006BB
:104FD0000A90DFF870060990DFF86C060890DFF899
:104FE0006C060790DFF868060690DFF86806059003
:104FF000DFF864060490DFF864060390DFF86006CB
:105000000290AE4890F86E010190AC48D0F854017F
:105010000090AA48D0F85031A848D0F84C21A748B1
:10502000D0F84811DFF83C060068FCF707FBDFF812
:105030003826D2E900010022DFF830361EF0DEF813
:105040000DD2002200231EF0B7F904D81EF0FCFA9E
:105050009B49088107E000209949088103E04FF649
:10506000FF7097490881DFF80826D2E90001002285
:10507000DFF800361EF0C2F80FD20022DFF8F83554
:105080001EF09AF904D81EF0DFFA8D49C86108E0D5
:105090005FF000408A49C86103E07FF00040884922
:1050A000C861DFF8D825D2E900010022DFF8C43555
:1050B0001EF0A4F80FD20022DFF8BC351EF07CF9F8
:1050C00004D81EF0C1FA7E49886108E05FF0004014
:1050D0007B49886103E07FF0004079498861774827
:1050E000D0F8CC08764908628BE2DFF82825D2E9AF
:1050F0001C010022DFF888351EF080F880F0E8807F
:105100000220DFF8101581F896010020DFF8041561
:10511000C1F82001DFF8FC04D0E91C23DFF8AC0C57
:10512000DFF8AC1C1DF0F0FDDFF8E824C2E91C013B
:10513000664880696149C1F84801614840685F4933
:10514000C1F84C016148406A5C49C1F850015F48B0
:1051500000695A49C1F854015C480078574981F800
:105160006E01DFF8B4041490DFF8B0041390DFF898
:10517000B0041290DFF8AC041190DFF8AC0410908A
:10518000DFF8A8040F90DFF8A8040E90DFF8A4045D
:105190000D90DFF8A4040C90DFF8A0040B90DFF86A
:1051A000A0040A90DFF89C040990DFF89C040890A2
:1051B000DFF898040790DFF898040690DFF894046D
:1051C0000590DFF894040490DFF890040390DFF872
:1051D00090040290394890F86E0101903748D0F859
:1051E000540100903548D0F850313448D0F84C2163
:1051F0003248D0F84811DFF86C040068FCF71EFA5A
:10520000DFF86424D2E900010022DFF860341DF0E9
:10521000F5FF0DD2002200231EF0CEF804D81EF0B8
:1052200013FA2749088107E000202549088103E097
:105230004FF6FF7022490881DFF83424D2E90001DB
:105240000022DFF830341DF0D9FF0FD20022DFF842
:1052500028341EF0B1F804D81EF0F6F91849C861D8
:1052600008E05FF000401649C86103E07FF00040AD
:105270001349C861DFF80424D2E900010022DFF8F5
:10528000F4331DF0BBFF0FD20022DFF8EC331EF029
:1052900093F804D81EF0D8F90949886108E05FF056
:1052A00000400749886103E07FF0004004498861BD
:1052B0000248D0F8CC0802490862A2E1D00B0020D5
:1052C000D41F00209A9999999999B93FB01D00204F
:1052D000DFF8180C407B002840F0D1800320DFF875
:1052E000341381F896010020DFF82813C1F820015B
:1052F000DFF82003D0E91C23DFF8D00ADFF8D01A4A
:105300001DF002FDC34AC2E91C01DFF8E00B806911
:10531000DFF8C01AC1F84801DFF868034068DFF819
:10532000B41AC1F84C01DFF8C40B406ADFF8A41AC4
:10533000C1F85001DFF8B40B0069DFF8981AC1F822
:105340005401DFF8A80B0078DFF8881A81F86E01A5
:10535000B1481490B1481390B1481290B1481190DF
:10536000B1481090B1480F90B1480E90B1480D90DF
:10537000B1480C90B1480B90B1480A90B1480990DF
:10538000B1480890B1480790B1480690B1480590DF
:10539000B1480490B1480390B1480290DFF8340A54
:1053A00090F86E010190DFF82C0AD0F854010090BB
:1053B000DFF8200AD0F85031DFF8180AD0F84C2175
:1053C000DFF8100AD0F84811A6480068FCF736F953
:1053D000A54AD2E900010022A44B1DF00FFF0DD217
:1053E000002200231DF0E8FF04D81EF02DF9A54986
:1053F000088107E00020A349088103E04FF6FF7011
:10540000A04908819A4AD2E900010022994B1DF077
:10541000F5FE0ED20022984B1DF0CEFF04D81EF0F0
:1054200013F99849C86108E05FF000409549C861E8
:1054300003E07FF000409349C861904AD2E900013F
:1054400000228C4B1DF0DAFE0ED200228A4B1DF09A
:10545000B3FF04D81EF0F8F88A49886108E05FF0CD
:1054600000408849886103E07FF0004085498861F9
:10547000DFF86009D0F8CC0882490862C1E06548CD
:10548000D0E91C23604880491DF03EFC614AC2E916
:105490001C01DFF8580A8069DFF83819C1F84801A3
:1054A00078484068DFF82C19C1F84C01DFF83C0A55
:1054B000406ADFF82019C1F85001DFF8300A0069AE
:1054C000DFF81019C1F85401DFF8200A0078DFF87E
:1054D000041981F86E0150481490504813905048B8
:1054E0001290504811905048109050480F905048DA
:1054F0000E9050480D9050480C9050480B905048DA
:105500000A905048099050480890504807905048D9
:1055100006905048059050480490504803905048D9
:105520000290DFF8B00890F86E010190DFF8A4084F
:10553000D0F854010090DFF89C08D0F85031DFF823
:105540009408D0F84C21DFF88C08D0F84811454871
:105550000068FCF773F8444AD2E900010022434B8B
:105560001DF04CFE0DD2002200231DF025FF04D8B3
:105570001EF06AF84349088107E00020414908818C
:1055800003E04FF6FF703F490881394AD2E9000134
:105590000022384B1DF032FE0ED20022364B1DF099
:1055A0000BFF04D81EF050F83649C86108E05FF0E0
:1055B00000403449C86103E07FF000403149C861D0
:1055C0002E4AD2E9000100222A4B1DF017FE0ED20E
:1055D0000022294B1DF0F0FE04D81EF035F82949B1
:1055E000886108E05FF000402649886103E07FF0B1
:1055F000004024498861DFF8DC07D0F8CC08214955
:10560000086216B010BD00BF7B14AE47E17A843F3C
:105610000000F03FE818002058190020D41900209D
:10562000D01900205019002048190020101900201E
:105630004D1A00204C1A00204B1A00204A1A002054
:10564000CC190020C8190020481A0020471A002051
:105650000819002000190020E0060020281B002067
:1056600070120020D0A40208601400200000F04056
:10567000401400200000E0410000E0C14814002078
:10568000000030C0D41F0020E17A84BF10B592B072
:10569000DFF8500A90F89101012804D0022801F0A7
:1056A000588002F049BBDFF83C0A90F895010128C8
:1056B00014D0C0F03986032800F03B8226D3052899
:1056C00000F02C84C0F0DB82072800F0F584C0F0E5
:1056D000DB84082800F0088500F026BE0020DFF8F3
:1056E000881DDFF8004AD4E920231DF063FC1DF07B
:1056F000C1FFDFF8F019D1F82011814204D309204D
:10570000DFF8E01981F8950101F021B8DFF8DC0736
:10571000407B002840F0AC800320DFF8C81981F8F6
:1057200095010020DFF8BC19C1F82001DFF8B409A9
:10573000D0E91C23DFF89406DFF894161DF0E4FA94
:10574000DFF8A029C2E91C01DFF8A0078069DFF8B3
:105750008416C1F83C01DFF8140D4068DFF87416B8
:10576000C1F84001DFF884070078DFF8681681F897
:105770006D01DFF878070069DFF85816C1F84401B9
:10578000DFF8EC0C0890DFF8EC0C0790DFF8E80C81
:105790000690DFF8E80C0590DFF8E40C0490DFF8E1
:1057A000E40C0390DFF8E00C0290DFF8E00C0190CD
:1057B000DFF82006D0F844010090DFF8180690F8D2
:1057C0006D31DFF81006D0F84021DFF80806D0F878
:1057D0003C11DFF8BC0C0068FBF71CFBDFF8F4059C
:1057E000B0F8A80ADFF8841C0881DFF8A82CD2E9F9
:1057F00000010022DFF8A03C1DF000FD11D20022C4
:10580000DFF8983C1DF0D8FD05D81DF01DFFDFF82E
:105810005C1C88610AE05FF00040DFF8501C886182
:1058200004E07FF00040DFF8441C8861DFF8702C52
:10583000D2E900010022DFF8603C1DF0DFFC11D24C
:105840000022DFF8583C1DF0B7FD05D81DF0FCFE26
:10585000DFF8181CC8610AE05FF00040DFF80C1C9C
:10586000C86104E07FF00040DFF8001CC8615EE121
:105870000020DFF8301CDFF86C48D4E920231DF04D
:1058800099FB1DF0F7FEDFF85C18D1F8201181427A
:10589000C0F0B1800020DFF8D41B81F8260003207F
:1058A000DFF8401881F895010020DFF83818C1F8BA
:1058B0002001DFF83008D0E91C23DFF81005DFF8FD
:1058C00010151DF021FADFF81C28C2E91C01DFF8D1
:1058D0001C068069DFF8FC14C1F83C01DFF88C0B72
:1058E0004068DFF8F014C1F84001DFF800060078E6
:1058F000DFF8E01481F86D01DFF8F0050069DFF8EA
:10590000D414C1F84401DFF8680B0890DFF8640B89
:105910000790DFF8640B0690DFF8600B0590DFF866
:10592000600B0490DFF85C0B0390DFF85C0B0290D7
:10593000DFF8580B0190DFF89C04D0F84401009088
:10594000DFF8900490F86D31DFF88804D0F840213A
:10595000DFF88004D0F83C11DFF8340B0068FBF767
:1059600059FADFF87004B0F8A80ADFF8001B0881C4
:10597000DFF8202BD2E900010022DFF81C3B1DF0EC
:105980003DFC11D20022DFF8143B1DF015FD05D8B7
:105990001DF05AFEDFF8D41A88610AE05FF000407B
:1059A000DFF8C81A886104E07FF00040DFF8BC1A15
:1059B0008861DFF8EC2AD2E900010022DFF8D83A4A
:1059C0001DF01CFC11D20022DFF8D03A1DF0F4FCCF
:1059D00005D81DF039FEDFF8941AC8610AE05FF0BF
:1059E0000040DFF8881AC86104E07FF00040DFF86B
:1059F0007C1AC8619BE0DFF8EC06D0E91C23DFF8D5
:105A0000CC03DFF8CC131DF07FF9DFF8D826C2E90C
:105A10001C01DFF8D8048069DFF8B813C1F83C0135
:105A2000DFF8480A4068DFF8AC13C1F84001DFF83E
:105A3000BC040078DFF89C1381F86D01DFF8AC043A
:105A40000069DFF89013C1F84401DFF8240A0890D8
:105A5000DFF8200A0790DFF8200A0690DFF81C0A1A
:105A60000590DFF81C0A0490DFF8180A0390DFF8AD
:105A7000180A0290DFF8140A0190D648D0F84401C1
:105A80000090D44890F86D31D248D0F84021D148E8
:105A9000D0F83C11DFF8F8090068FBF7BBF9CD48F6
:105AA000B0F8A80ADFF8C4190881DFF8E829D2E9BC
:105AB00000010022DFF8E0391DF0A0FB11D2002226
:105AC000DFF8D8391DF078FC05D81DF0BDFDDFF8F2
:105AD0009C1988610AE05FF00040DFF89019886146
